{
  "contractName": "AttributeStore",
  "abi": [
    {
      "constant": true,
      "inputs": [
        {
          "name": "self",
          "type": "AttributeStore.Data storage"
        },
        {
          "name": "_UUID",
          "type": "bytes32"
        },
        {
          "name": "_attrName",
          "type": "string"
        }
      ],
      "name": "getAttribute",
      "outputs": [
        {
          "name": "",
          "type": "uint256"
        }
      ],
      "payable": false,
      "stateMutability": "view",
      "type": "function"
    },
    {
      "constant": false,
      "inputs": [
        {
          "name": "self",
          "type": "AttributeStore.Data storage"
        },
        {
          "name": "_UUID",
          "type": "bytes32"
        },
        {
          "name": "_attrName",
          "type": "string"
        },
        {
          "name": "_attrVal",
          "type": "uint256"
        }
      ],
      "name": "setAttribute",
      "outputs": [],
      "payable": false,
      "stateMutability": "nonpayable",
      "type": "function"
    }
  ],
  "bytecode": "0x6102e7610030600b82828239805160001a6073146000811461002057610022565bfe5b5030600052607381538281f3007300000000000000000000000000000000000000003014608060405260043610610063576000357c0100000000000000000000000000000000000000000000000000000000900463ffffffff16806350389f5c14610068578063977aa031146100f0575b600080fd5b6100da600480360381019080803590602001909291908035600019169060200190929190803590602001908201803590602001908080601f016020809104026020016040519081016040528093929190818152602001838380828437820191505050505050919291929050505061017b565b6040518082815260200191505060405180910390f35b8180156100fc57600080fd5b50610179600480360381019080803590602001909291908035600019169060200190929190803590602001908201803590602001908080601f01602080910402602001604051908101604052809392919081815260200183838082843782019150505050505091929192908035906020019092919050505061021b565b005b600080838360405180836000191660001916815260200182805190602001908083835b6020831015156101c3578051825260208201915060208101905060208303925061019e565b6001836020036101000a03801982511681845116808217855250505050505090500192505050604051809103902090508460000160008260001916600019168152602001908152602001600020549150509392505050565b6000838360405180836000191660001916815260200182805190602001908083835b602083101515610262578051825260208201915060208101905060208303925061023d565b6001836020036101000a03801982511681845116808217855250505050505090500192505050604051809103902090508185600001600083600019166000191681526020019081526020016000208190555050505050505600a165627a7a723058203e999c16bfe9b614e1f8b73b4882892df9f7099033ffc242a2b3dee4b52c54bc0029",
  "source": "pragma solidity^0.4.11;\r\n\r\nlibrary AttributeStore {\r\n    struct Data {\r\n        mapping(bytes32 => uint) store;\r\n    }\r\n\r\n    function getAttribute(Data storage self, bytes32 _UUID, string _attrName)\r\n    public view returns (uint) {\r\n        bytes32 key = keccak256(_UUID, _attrName);\r\n        return self.store[key];\r\n    }\r\n\r\n    function setAttribute(Data storage self, bytes32 _UUID, string _attrName, uint _attrVal)\r\n    public {\r\n        bytes32 key = keccak256(_UUID, _attrName);\r\n        self.store[key] = _attrVal;\r\n    }\r\n}\r\n",
  "sourcePath": "attrstore/AttributeStore.sol",
  "compiler": {
    "name": "solc",
    "version": "0.4.24+commit.e67f0147.Emscripten.clang"
  },
  "schemaVersion": "2.0.1",
  "updatedAt": "2019-02-09T11:42:56.099Z"
}